{
  "_format": "hh-sol-artifact-1",
  "contractName": "CondominiumAdapter",
  "sourceName": "contracts/CondominiumAdapter.sol",
  "abi": [
    {
      "inputs": [],
      "stateMutability": "nonpayable",
      "type": "constructor"
    },
    {
      "anonymous": false,
      "inputs": [
        {
          "indexed": false,
          "internalType": "address",
          "name": "manager",
          "type": "address"
        }
      ],
      "name": "ManagerChanged",
      "type": "event"
    },
    {
      "anonymous": false,
      "inputs": [
        {
          "indexed": false,
          "internalType": "uint256",
          "name": "amount",
          "type": "uint256"
        }
      ],
      "name": "QuotaChanged",
      "type": "event"
    },
    {
      "anonymous": false,
      "inputs": [
        {
          "indexed": true,
          "internalType": "bytes32",
          "name": "topicId",
          "type": "bytes32"
        },
        {
          "indexed": false,
          "internalType": "string",
          "name": "title",
          "type": "string"
        },
        {
          "indexed": true,
          "internalType": "enum CondominiumLib.Status",
          "name": "status",
          "type": "uint8"
        }
      ],
      "name": "TopicChanged",
      "type": "event"
    },
    {
      "anonymous": false,
      "inputs": [
        {
          "indexed": false,
          "internalType": "address",
          "name": "to",
          "type": "address"
        },
        {
          "indexed": true,
          "internalType": "uint256",
          "name": "amount",
          "type": "uint256"
        },
        {
          "indexed": false,
          "internalType": "string",
          "name": "topic",
          "type": "string"
        }
      ],
      "name": "Transfer",
      "type": "event"
    },
    {
      "inputs": [
        {
          "internalType": "address",
          "name": "resident",
          "type": "address"
        },
        {
          "internalType": "uint16",
          "name": "residenceId",
          "type": "uint16"
        }
      ],
      "name": "addResident",
      "outputs": [],
      "stateMutability": "nonpayable",
      "type": "function"
    },
    {
      "inputs": [
        {
          "internalType": "string",
          "name": "title",
          "type": "string"
        },
        {
          "internalType": "string",
          "name": "description",
          "type": "string"
        },
        {
          "internalType": "enum CondominiumLib.Category",
          "name": "category",
          "type": "uint8"
        },
        {
          "internalType": "uint256",
          "name": "amount",
          "type": "uint256"
        },
        {
          "internalType": "address",
          "name": "responsible",
          "type": "address"
        }
      ],
      "name": "addTopic",
      "outputs": [],
      "stateMutability": "nonpayable",
      "type": "function"
    },
    {
      "inputs": [
        {
          "internalType": "string",
          "name": "title",
          "type": "string"
        }
      ],
      "name": "closeVoting",
      "outputs": [],
      "stateMutability": "nonpayable",
      "type": "function"
    },
    {
      "inputs": [
        {
          "internalType": "string",
          "name": "topicToEdit",
          "type": "string"
        },
        {
          "internalType": "string",
          "name": "description",
          "type": "string"
        },
        {
          "internalType": "uint256",
          "name": "amount",
          "type": "uint256"
        },
        {
          "internalType": "address",
          "name": "responsible",
          "type": "address"
        }
      ],
      "name": "editTopic",
      "outputs": [],
      "stateMutability": "nonpayable",
      "type": "function"
    },
    {
      "inputs": [],
      "name": "getImplementationAddress",
      "outputs": [
        {
          "internalType": "address",
          "name": "",
          "type": "address"
        }
      ],
      "stateMutability": "view",
      "type": "function"
    },
    {
      "inputs": [],
      "name": "getManager",
      "outputs": [
        {
          "internalType": "address",
          "name": "",
          "type": "address"
        }
      ],
      "stateMutability": "view",
      "type": "function"
    },
    {
      "inputs": [],
      "name": "getQuota",
      "outputs": [
        {
          "internalType": "uint256",
          "name": "",
          "type": "uint256"
        }
      ],
      "stateMutability": "view",
      "type": "function"
    },
    {
      "inputs": [
        {
          "internalType": "string",
          "name": "title",
          "type": "string"
        }
      ],
      "name": "openVoting",
      "outputs": [],
      "stateMutability": "nonpayable",
      "type": "function"
    },
    {
      "inputs": [],
      "name": "owner",
      "outputs": [
        {
          "internalType": "address",
          "name": "",
          "type": "address"
        }
      ],
      "stateMutability": "view",
      "type": "function"
    },
    {
      "inputs": [
        {
          "internalType": "uint16",
          "name": "residenceId",
          "type": "uint16"
        }
      ],
      "name": "payQuota",
      "outputs": [],
      "stateMutability": "payable",
      "type": "function"
    },
    {
      "inputs": [
        {
          "internalType": "address",
          "name": "resident",
          "type": "address"
        }
      ],
      "name": "removeResident",
      "outputs": [],
      "stateMutability": "nonpayable",
      "type": "function"
    },
    {
      "inputs": [
        {
          "internalType": "string",
          "name": "title",
          "type": "string"
        }
      ],
      "name": "removeTopic",
      "outputs": [],
      "stateMutability": "nonpayable",
      "type": "function"
    },
    {
      "inputs": [
        {
          "internalType": "address",
          "name": "resident",
          "type": "address"
        },
        {
          "internalType": "bool",
          "name": "isEntering",
          "type": "bool"
        }
      ],
      "name": "setCounselor",
      "outputs": [],
      "stateMutability": "nonpayable",
      "type": "function"
    },
    {
      "inputs": [
        {
          "internalType": "string",
          "name": "topicTitle",
          "type": "string"
        },
        {
          "internalType": "uint256",
          "name": "amount",
          "type": "uint256"
        }
      ],
      "name": "transfer",
      "outputs": [],
      "stateMutability": "nonpayable",
      "type": "function"
    },
    {
      "inputs": [
        {
          "internalType": "address",
          "name": "newImplementation",
          "type": "address"
        }
      ],
      "name": "upgrade",
      "outputs": [],
      "stateMutability": "nonpayable",
      "type": "function"
    },
    {
      "inputs": [
        {
          "internalType": "string",
          "name": "title",
          "type": "string"
        },
        {
          "internalType": "enum CondominiumLib.Options",
          "name": "option",
          "type": "uint8"
        }
      ],
      "name": "vote",
      "outputs": [],
      "stateMutability": "nonpayable",
      "type": "function"
    }
  ],
  "bytecode": "0x60a0604052348015600f57600080fd5b503373ffffffffffffffffffffffffffffffffffffffff1660808173ffffffffffffffffffffffffffffffffffffffff1681525050608051612515610066600039600081816103850152610afb01526125156000f3fe6080604052600436106100f35760003560e01c80638fc5dad81161008a578063b158354611610059578063b1583546146102ea578063c12e806314610313578063d50095841461032f578063eaf5d9dc1461035a576100f3565b80638fc5dad81461024657806390ca27f31461026f57806396fa1def146102985780639e1bf985146102c1576100f3565b806343b8c6b1116100c657806343b8c6b1146101a0578063597de987146101c95780637b57ee49146101f25780638da5cb5b1461021b576100f3565b80630900f010146100f85780630cbcae701461012157806312cb70c71461014c5780631df8ba7714610175575b600080fd5b34801561010457600080fd5b5061011f600480360381019061011a919061180b565b610383565b005b34801561012d57600080fd5b50610136610454565b6040516101439190611847565b60405180910390f35b34801561015857600080fd5b50610173600480360381019061016e91906119de565b61047d565b005b34801561018157600080fd5b5061018a6105ff565b6040516101979190611a49565b60405180910390f35b3480156101ac57600080fd5b506101c760048036038101906101c29190611a89565b610723565b005b3480156101d557600080fd5b506101f060048036038101906101eb919061180b565b61084c565b005b3480156101fe57600080fd5b5061021960048036038101906102149190611b3c565b610969565b005b34801561022757600080fd5b50610230610af9565b60405161023d9190611847565b60405180910390f35b34801561025257600080fd5b5061026d60048036038101906102689190611b3c565b610b1d565b005b34801561027b57600080fd5b5061029660048036038101906102919190611baa565b610ece565b005b3480156102a457600080fd5b506102bf60048036038101906102ba9190611c3e565b610fee565b005b3480156102cd57600080fd5b506102e860048036038101906102e39190611b3c565b61110e565b005b3480156102f657600080fd5b50610311600480360381019061030c9190611cb8565b61129e565b005b61032d60048036038101906103289190611cf8565b6113be565b005b34801561033b57600080fd5b506103446114dc565b6040516103519190611847565b60405180910390f35b34801561036657600080fd5b50610381600480360381019061037c9190611d25565b611600565b005b7f000000000000000000000000000000000000000000000000000000000000000073ffffffffffffffffffffffffffffffffffffffff163373ffffffffffffffffffffffffffffffffffffffff1614610411576040517f08c379a000000000000000000000000000000000000000000000000000000000815260040161040890611e21565b60405180910390fd5b806000806101000a81548173ffffffffffffffffffffffffffffffffffffffff021916908373ffffffffffffffffffffffffffffffffffffffff16021790555050565b60008060009054906101000a900473ffffffffffffffffffffffffffffffffffffffff16905090565b600073ffffffffffffffffffffffffffffffffffffffff1660008054906101000a900473ffffffffffffffffffffffffffffffffffffffff1673ffffffffffffffffffffffffffffffffffffffff160361050c576040517f08c379a000000000000000000000000000000000000000000000000000000000815260040161050390611e8d565b60405180910390fd5b60008060009054906101000a900473ffffffffffffffffffffffffffffffffffffffff1673ffffffffffffffffffffffffffffffffffffffff166312cb70c784846040518363ffffffff1660e01b815260040161056a929190611f1b565b6000604051808303816000875af1158015610589573d6000803e3d6000fd5b505050506040513d6000823e3d601f19601f820116820180604052508101906105b2919061206f565b905080602001517feb10b79f28ae0b520cb7ee8e40115f547bfac852d7167a55d9ae8e028ee23a11826000015183604001516040516105f29291906120b8565b60405180910390a2505050565b60008073ffffffffffffffffffffffffffffffffffffffff1660008054906101000a900473ffffffffffffffffffffffffffffffffffffffff1673ffffffffffffffffffffffffffffffffffffffff160361068f576040517f08c379a000000000000000000000000000000000000000000000000000000000815260040161068690611e8d565b60405180910390fd5b60008054906101000a900473ffffffffffffffffffffffffffffffffffffffff1673ffffffffffffffffffffffffffffffffffffffff16631df8ba776040518163ffffffff1660e01b8152600401602060405180830381865afa1580156106fa573d6000803e3d6000fd5b505050506040513d601f19601f8201168201806040525081019061071e91906120e8565b905090565b600073ffffffffffffffffffffffffffffffffffffffff1660008054906101000a900473ffffffffffffffffffffffffffffffffffffffff1673ffffffffffffffffffffffffffffffffffffffff16036107b2576040517f08c379a00000000000000000000000000000000000000000000000000000000081526004016107a990611e8d565b60405180910390fd5b60008054906101000a900473ffffffffffffffffffffffffffffffffffffffff1673ffffffffffffffffffffffffffffffffffffffff166343b8c6b186868686866040518663ffffffff1660e01b815260040161081395949392919061218c565b600060405180830381600087803b15801561082d57600080fd5b505af1158015610841573d6000803e3d6000fd5b505050505050505050565b600073ffffffffffffffffffffffffffffffffffffffff1660008054906101000a900473ffffffffffffffffffffffffffffffffffffffff1673ffffffffffffffffffffffffffffffffffffffff16036108db576040517f08c379a00000000000000000000000000000000000000000000000000000000081526004016108d290611e8d565b60405180910390fd5b60008054906101000a900473ffffffffffffffffffffffffffffffffffffffff1673ffffffffffffffffffffffffffffffffffffffff1663597de987826040518263ffffffff1660e01b81526004016109349190611847565b600060405180830381600087803b15801561094e57600080fd5b505af1158015610962573d6000803e3d6000fd5b5050505050565b600073ffffffffffffffffffffffffffffffffffffffff1660008054906101000a900473ffffffffffffffffffffffffffffffffffffffff1673ffffffffffffffffffffffffffffffffffffffff16036109f8576040517f08c379a00000000000000000000000000000000000000000000000000000000081526004016109ef90611e8d565b60405180910390fd5b60008060009054906101000a900473ffffffffffffffffffffffffffffffffffffffff1673ffffffffffffffffffffffffffffffffffffffff16637b57ee49836040518263ffffffff1660e01b8152600401610a5491906121ed565b6000604051808303816000875af1158015610a73573d6000803e3d6000fd5b505050506040513d6000823e3d601f19601f82011682018060405250810190610a9c9190612313565b905080604001516005811115610ab557610ab4612115565b5b81600001517fefe93f21a3369f1228a2589883bc377a76d7335daddc712853688de4617f82ab8360200151604051610aed91906121ed565b60405180910390a35050565b7f000000000000000000000000000000000000000000000000000000000000000081565b600073ffffffffffffffffffffffffffffffffffffffff1660008054906101000a900473ffffffffffffffffffffffffffffffffffffffff1673ffffffffffffffffffffffffffffffffffffffff1603610bac576040517f08c379a0000000000000000000000000000000000000000000000000000000008152600401610ba390611e8d565b60405180910390fd5b60008060009054906101000a900473ffffffffffffffffffffffffffffffffffffffff1673ffffffffffffffffffffffffffffffffffffffff16638fc5dad8836040518263ffffffff1660e01b8152600401610c0891906121ed565b6000604051808303816000875af1158015610c27573d6000803e3d6000fd5b505050506040513d6000823e3d601f19601f82011682018060405250810190610c509190612313565b905080604001516005811115610c6957610c68612115565b5b81600001517fefe93f21a3369f1228a2589883bc377a76d7335daddc712853688de4617f82ab8360200151604051610ca191906121ed565b60405180910390a360026005811115610cbd57610cbc612115565b5b81604001516005811115610cd457610cd3612115565b5b03610eca57600380811115610cec57610ceb612115565b5b81606001516003811115610d0357610d02612115565b5b03610dd2577f198db6e425fb8aafd1823c6ca50be2d51e5764571a5ae0f0f21c6812e45def0b60008054906101000a900473ffffffffffffffffffffffffffffffffffffffff1673ffffffffffffffffffffffffffffffffffffffff1663d50095846040518163ffffffff1660e01b8152600401602060405180830381865afa158015610d94573d6000803e3d6000fd5b505050506040513d601f19601f82011682018060405250810190610db8919061235c565b604051610dc59190611847565b60405180910390a1610ec9565b60026003811115610de657610de5612115565b5b81606001516003811115610dfd57610dfc612115565b5b03610ec8577f274a3b0d5142ec9fc4e77bd3ffc173b4e7c6c64eca73b31a6c6906b184257e7e60008054906101000a900473ffffffffffffffffffffffffffffffffffffffff1673ffffffffffffffffffffffffffffffffffffffff16631df8ba776040518163ffffffff1660e01b8152600401602060405180830381865afa158015610e8e573d6000803e3d6000fd5b505050506040513d601f19601f82011682018060405250810190610eb291906120e8565b604051610ebf9190611a49565b60405180910390a15b5b5b5050565b600073ffffffffffffffffffffffffffffffffffffffff1660008054906101000a900473ffffffffffffffffffffffffffffffffffffffff1673ffffffffffffffffffffffffffffffffffffffff1603610f5d576040517f08c379a0000000000000000000000000000000000000000000000000000000008152600401610f5490611e8d565b60405180910390fd5b60008054906101000a900473ffffffffffffffffffffffffffffffffffffffff1673ffffffffffffffffffffffffffffffffffffffff166390ca27f383836040518363ffffffff1660e01b8152600401610fb89291906123d1565b600060405180830381600087803b158015610fd257600080fd5b505af1158015610fe6573d6000803e3d6000fd5b505050505050565b600073ffffffffffffffffffffffffffffffffffffffff1660008054906101000a900473ffffffffffffffffffffffffffffffffffffffff1673ffffffffffffffffffffffffffffffffffffffff160361107d576040517f08c379a000000000000000000000000000000000000000000000000000000000815260040161107490611e8d565b60405180910390fd5b60008054906101000a900473ffffffffffffffffffffffffffffffffffffffff1673ffffffffffffffffffffffffffffffffffffffff166396fa1def83836040518363ffffffff1660e01b81526004016110d8929190612410565b600060405180830381600087803b1580156110f257600080fd5b505af1158015611106573d6000803e3d6000fd5b505050505050565b600073ffffffffffffffffffffffffffffffffffffffff1660008054906101000a900473ffffffffffffffffffffffffffffffffffffffff1673ffffffffffffffffffffffffffffffffffffffff160361119d576040517f08c379a000000000000000000000000000000000000000000000000000000000815260040161119490611e8d565b60405180910390fd5b60008060009054906101000a900473ffffffffffffffffffffffffffffffffffffffff1673ffffffffffffffffffffffffffffffffffffffff16639e1bf985836040518263ffffffff1660e01b81526004016111f991906121ed565b6000604051808303816000875af1158015611218573d6000803e3d6000fd5b505050506040513d6000823e3d601f19601f820116820180604052508101906112419190612313565b90508060400151600581111561125a57611259612115565b5b81600001517fefe93f21a3369f1228a2589883bc377a76d7335daddc712853688de4617f82ab836020015160405161129291906121ed565b60405180910390a35050565b600073ffffffffffffffffffffffffffffffffffffffff1660008054906101000a900473ffffffffffffffffffffffffffffffffffffffff1673ffffffffffffffffffffffffffffffffffffffff160361132d576040517f08c379a000000000000000000000000000000000000000000000000000000000815260040161132490611e8d565b60405180910390fd5b60008054906101000a900473ffffffffffffffffffffffffffffffffffffffff1673ffffffffffffffffffffffffffffffffffffffff1663b158354683836040518363ffffffff1660e01b8152600401611388929190612448565b600060405180830381600087803b1580156113a257600080fd5b505af11580156113b6573d6000803e3d6000fd5b505050505050565b600073ffffffffffffffffffffffffffffffffffffffff1660008054906101000a900473ffffffffffffffffffffffffffffffffffffffff1673ffffffffffffffffffffffffffffffffffffffff160361144d576040517f08c379a000000000000000000000000000000000000000000000000000000000815260040161144490611e8d565b60405180910390fd5b60008054906101000a900473ffffffffffffffffffffffffffffffffffffffff1673ffffffffffffffffffffffffffffffffffffffff1663c12e806334836040518363ffffffff1660e01b81526004016114a79190612471565b6000604051808303818588803b1580156114c057600080fd5b505af11580156114d4573d6000803e3d6000fd5b505050505050565b60008073ffffffffffffffffffffffffffffffffffffffff1660008054906101000a900473ffffffffffffffffffffffffffffffffffffffff1673ffffffffffffffffffffffffffffffffffffffff160361156c576040517f08c379a000000000000000000000000000000000000000000000000000000000815260040161156390611e8d565b60405180910390fd5b60008054906101000a900473ffffffffffffffffffffffffffffffffffffffff1673ffffffffffffffffffffffffffffffffffffffff1663d50095846040518163ffffffff1660e01b8152600401602060405180830381865afa1580156115d7573d6000803e3d6000fd5b505050506040513d601f19601f820116820180604052508101906115fb919061235c565b905090565b600073ffffffffffffffffffffffffffffffffffffffff1660008054906101000a900473ffffffffffffffffffffffffffffffffffffffff1673ffffffffffffffffffffffffffffffffffffffff160361168f576040517f08c379a000000000000000000000000000000000000000000000000000000000815260040161168690611e8d565b60405180910390fd5b60008060009054906101000a900473ffffffffffffffffffffffffffffffffffffffff1673ffffffffffffffffffffffffffffffffffffffff1663eaf5d9dc868686866040518563ffffffff1660e01b81526004016116f1949392919061248c565b6000604051808303816000875af1158015611710573d6000803e3d6000fd5b505050506040513d6000823e3d601f19601f820116820180604052508101906117399190612313565b90508060400151600581111561175257611751612115565b5b81600001517fefe93f21a3369f1228a2589883bc377a76d7335daddc712853688de4617f82ab836020015160405161178a91906121ed565b60405180910390a35050505050565b6000604051905090565b600080fd5b600080fd5b600073ffffffffffffffffffffffffffffffffffffffff82169050919050565b60006117d8826117ad565b9050919050565b6117e8816117cd565b81146117f357600080fd5b50565b600081359050611805816117df565b92915050565b600060208284031215611821576118206117a3565b5b600061182f848285016117f6565b91505092915050565b611841816117cd565b82525050565b600060208201905061185c6000830184611838565b92915050565b600080fd5b600080fd5b6000601f19601f8301169050919050565b7f4e487b7100000000000000000000000000000000000000000000000000000000600052604160045260246000fd5b6118b58261186c565b810181811067ffffffffffffffff821117156118d4576118d361187d565b5b80604052505050565b60006118e7611799565b90506118f382826118ac565b919050565b600067ffffffffffffffff8211156119135761191261187d565b5b61191c8261186c565b9050602081019050919050565b82818337600083830152505050565b600061194b611946846118f8565b6118dd565b90508281526020810184848401111561196757611966611867565b5b611972848285611929565b509392505050565b600082601f83011261198f5761198e611862565b5b813561199f848260208601611938565b91505092915050565b6000819050919050565b6119bb816119a8565b81146119c657600080fd5b50565b6000813590506119d8816119b2565b92915050565b600080604083850312156119f5576119f46117a3565b5b600083013567ffffffffffffffff811115611a1357611a126117a8565b5b611a1f8582860161197a565b9250506020611a30858286016119c9565b9150509250929050565b611a43816119a8565b82525050565b6000602082019050611a5e6000830184611a3a565b92915050565b60048110611a7157600080fd5b50565b600081359050611a8381611a64565b92915050565b600080600080600060a08688031215611aa557611aa46117a3565b5b600086013567ffffffffffffffff811115611ac357611ac26117a8565b5b611acf8882890161197a565b955050602086013567ffffffffffffffff811115611af057611aef6117a8565b5b611afc8882890161197a565b9450506040611b0d88828901611a74565b9350506060611b1e888289016119c9565b9250506080611b2f888289016117f6565b9150509295509295909350565b600060208284031215611b5257611b516117a3565b5b600082013567ffffffffffffffff811115611b7057611b6f6117a8565b5b611b7c8482850161197a565b91505092915050565b60048110611b9257600080fd5b50565b600081359050611ba481611b85565b92915050565b60008060408385031215611bc157611bc06117a3565b5b600083013567ffffffffffffffff811115611bdf57611bde6117a8565b5b611beb8582860161197a565b9250506020611bfc85828601611b95565b9150509250929050565b60008115159050919050565b611c1b81611c06565b8114611c2657600080fd5b50565b600081359050611c3881611c12565b92915050565b60008060408385031215611c5557611c546117a3565b5b6000611c63858286016117f6565b9250506020611c7485828601611c29565b9150509250929050565b600061ffff82169050919050565b611c9581611c7e565b8114611ca057600080fd5b50565b600081359050611cb281611c8c565b92915050565b60008060408385031215611ccf57611cce6117a3565b5b6000611cdd858286016117f6565b9250506020611cee85828601611ca3565b9150509250929050565b600060208284031215611d0e57611d0d6117a3565b5b6000611d1c84828501611ca3565b91505092915050565b60008060008060808587031215611d3f57611d3e6117a3565b5b600085013567ffffffffffffffff811115611d5d57611d5c6117a8565b5b611d698782880161197a565b945050602085013567ffffffffffffffff811115611d8a57611d896117a8565b5b611d968782880161197a565b9350506040611da7878288016119c9565b9250506060611db8878288016117f6565b91505092959194509250565b600082825260208201905092915050565b7f596f7520646f206e6f742068617665207065726d697373696f6e000000000000600082015250565b6000611e0b601a83611dc4565b9150611e1682611dd5565b602082019050919050565b60006020820190508181036000830152611e3a81611dfe565b9050919050565b7f596f75206d757374207570677261646520666972737400000000000000000000600082015250565b6000611e77601683611dc4565b9150611e8282611e41565b602082019050919050565b60006020820190508181036000830152611ea681611e6a565b9050919050565b600081519050919050565b60005b83811015611ed6578082015181840152602081019050611ebb565b60008484015250505050565b6000611eed82611ead565b611ef78185611dc4565b9350611f07818560208601611eb8565b611f108161186c565b840191505092915050565b60006040820190508181036000830152611f358185611ee2565b9050611f446020830184611a3a565b9392505050565b600080fd5b600080fd5b600081519050611f64816117df565b92915050565b600081519050611f79816119b2565b92915050565b6000611f92611f8d846118f8565b6118dd565b905082815260208101848484011115611fae57611fad611867565b5b611fb9848285611eb8565b509392505050565b600082601f830112611fd657611fd5611862565b5b8151611fe6848260208601611f7f565b91505092915050565b60006060828403121561200557612004611f4b565b5b61200f60606118dd565b9050600061201f84828501611f55565b600083015250602061203384828501611f6a565b602083015250604082015167ffffffffffffffff81111561205757612056611f50565b5b61206384828501611fc1565b60408301525092915050565b600060208284031215612085576120846117a3565b5b600082015167ffffffffffffffff8111156120a3576120a26117a8565b5b6120af84828501611fef565b91505092915050565b60006040820190506120cd6000830185611838565b81810360208301526120df8184611ee2565b90509392505050565b6000602082840312156120fe576120fd6117a3565b5b600061210c84828501611f6a565b91505092915050565b7f4e487b7100000000000000000000000000000000000000000000000000000000600052602160045260246000fd5b6004811061215557612154612115565b5b50565b600081905061216682612144565b919050565b600061217682612158565b9050919050565b6121868161216b565b82525050565b600060a08201905081810360008301526121a68188611ee2565b905081810360208301526121ba8187611ee2565b90506121c9604083018661217d565b6121d66060830185611a3a565b6121e36080830184611838565b9695505050505050565b600060208201905081810360008301526122078184611ee2565b905092915050565b6000819050919050565b6122228161220f565b811461222d57600080fd5b50565b60008151905061223f81612219565b92915050565b6006811061225257600080fd5b50565b60008151905061226481612245565b92915050565b60008151905061227981611a64565b92915050565b60006080828403121561229557612294611f4b565b5b61229f60806118dd565b905060006122af84828501612230565b600083015250602082015167ffffffffffffffff8111156122d3576122d2611f50565b5b6122df84828501611fc1565b60208301525060406122f384828501612255565b60408301525060606123078482850161226a565b60608301525092915050565b600060208284031215612329576123286117a3565b5b600082015167ffffffffffffffff811115612347576123466117a8565b5b6123538482850161227f565b91505092915050565b600060208284031215612372576123716117a3565b5b600061238084828501611f55565b91505092915050565b6004811061239a57612399612115565b5b50565b60008190506123ab82612389565b919050565b60006123bb8261239d565b9050919050565b6123cb816123b0565b82525050565b600060408201905081810360008301526123eb8185611ee2565b90506123fa60208301846123c2565b9392505050565b61240a81611c06565b82525050565b60006040820190506124256000830185611838565b6124326020830184612401565b9392505050565b61244281611c7e565b82525050565b600060408201905061245d6000830185611838565b61246a6020830184612439565b9392505050565b60006020820190506124866000830184612439565b92915050565b600060808201905081810360008301526124a68187611ee2565b905081810360208301526124ba8186611ee2565b90506124c96040830185611a3a565b6124d66060830184611838565b9594505050505056fea2646970667358221220ef0026c875e1d37d39cf7cf64cc2b0df379517f89324c9f0ec600f0da2619a6e64736f6c634300081c0033",
  "linkReferences": {},
  "deployedLinkReferences": {}
}