{
  "_format": "hh-sol-artifact-1",
  "contractName": "CondominiumAdapter",
  "sourceName": "contracts/CondominiumAdapter.sol",
  "abi": [
    {
      "inputs": [],
      "stateMutability": "nonpayable",
      "type": "constructor"
    },
    {
      "anonymous": false,
      "inputs": [
        {
          "indexed": false,
          "internalType": "address",
          "name": "manager",
          "type": "address"
        }
      ],
      "name": "ManagerChanged",
      "type": "event"
    },
    {
      "anonymous": false,
      "inputs": [
        {
          "indexed": false,
          "internalType": "uint256",
          "name": "amount",
          "type": "uint256"
        }
      ],
      "name": "QuotaChanged",
      "type": "event"
    },
    {
      "anonymous": false,
      "inputs": [
        {
          "indexed": true,
          "internalType": "bytes32",
          "name": "topicId",
          "type": "bytes32"
        },
        {
          "indexed": false,
          "internalType": "string",
          "name": "title",
          "type": "string"
        },
        {
          "indexed": true,
          "internalType": "enum CondominiumLib.Status",
          "name": "status",
          "type": "uint8"
        }
      ],
      "name": "TopicChanged",
      "type": "event"
    },
    {
      "anonymous": false,
      "inputs": [
        {
          "indexed": false,
          "internalType": "address",
          "name": "to",
          "type": "address"
        },
        {
          "indexed": true,
          "internalType": "uint256",
          "name": "amount",
          "type": "uint256"
        },
        {
          "indexed": false,
          "internalType": "string",
          "name": "topic",
          "type": "string"
        }
      ],
      "name": "Transfer",
      "type": "event"
    },
    {
      "inputs": [
        {
          "internalType": "address",
          "name": "resident",
          "type": "address"
        },
        {
          "internalType": "uint16",
          "name": "residenceId",
          "type": "uint16"
        }
      ],
      "name": "addResident",
      "outputs": [],
      "stateMutability": "nonpayable",
      "type": "function"
    },
    {
      "inputs": [
        {
          "internalType": "string",
          "name": "title",
          "type": "string"
        },
        {
          "internalType": "string",
          "name": "description",
          "type": "string"
        },
        {
          "internalType": "enum CondominiumLib.Category",
          "name": "category",
          "type": "uint8"
        },
        {
          "internalType": "uint256",
          "name": "amount",
          "type": "uint256"
        },
        {
          "internalType": "address",
          "name": "responsible",
          "type": "address"
        }
      ],
      "name": "addTopic",
      "outputs": [],
      "stateMutability": "nonpayable",
      "type": "function"
    },
    {
      "inputs": [
        {
          "internalType": "string",
          "name": "title",
          "type": "string"
        }
      ],
      "name": "closeVoting",
      "outputs": [],
      "stateMutability": "nonpayable",
      "type": "function"
    },
    {
      "inputs": [
        {
          "internalType": "string",
          "name": "topicToEdit",
          "type": "string"
        },
        {
          "internalType": "string",
          "name": "description",
          "type": "string"
        },
        {
          "internalType": "uint256",
          "name": "amount",
          "type": "uint256"
        },
        {
          "internalType": "address",
          "name": "responsible",
          "type": "address"
        }
      ],
      "name": "editTopic",
      "outputs": [],
      "stateMutability": "nonpayable",
      "type": "function"
    },
    {
      "inputs": [],
      "name": "getImplementationAddress",
      "outputs": [
        {
          "internalType": "address",
          "name": "",
          "type": "address"
        }
      ],
      "stateMutability": "view",
      "type": "function"
    },
    {
      "inputs": [
        {
          "internalType": "string",
          "name": "title",
          "type": "string"
        }
      ],
      "name": "openVoting",
      "outputs": [],
      "stateMutability": "nonpayable",
      "type": "function"
    },
    {
      "inputs": [],
      "name": "owner",
      "outputs": [
        {
          "internalType": "address",
          "name": "",
          "type": "address"
        }
      ],
      "stateMutability": "view",
      "type": "function"
    },
    {
      "inputs": [
        {
          "internalType": "uint16",
          "name": "residenceId",
          "type": "uint16"
        }
      ],
      "name": "payQuota",
      "outputs": [],
      "stateMutability": "payable",
      "type": "function"
    },
    {
      "inputs": [
        {
          "internalType": "address",
          "name": "resident",
          "type": "address"
        }
      ],
      "name": "removeResident",
      "outputs": [],
      "stateMutability": "nonpayable",
      "type": "function"
    },
    {
      "inputs": [
        {
          "internalType": "string",
          "name": "title",
          "type": "string"
        }
      ],
      "name": "removeTopic",
      "outputs": [],
      "stateMutability": "nonpayable",
      "type": "function"
    },
    {
      "inputs": [
        {
          "internalType": "address",
          "name": "resident",
          "type": "address"
        },
        {
          "internalType": "bool",
          "name": "isEntering",
          "type": "bool"
        }
      ],
      "name": "setCounselor",
      "outputs": [],
      "stateMutability": "nonpayable",
      "type": "function"
    },
    {
      "inputs": [
        {
          "internalType": "string",
          "name": "topicTitle",
          "type": "string"
        },
        {
          "internalType": "uint256",
          "name": "amount",
          "type": "uint256"
        }
      ],
      "name": "transfer",
      "outputs": [],
      "stateMutability": "nonpayable",
      "type": "function"
    },
    {
      "inputs": [
        {
          "internalType": "address",
          "name": "newImplementation",
          "type": "address"
        }
      ],
      "name": "upgrade",
      "outputs": [],
      "stateMutability": "nonpayable",
      "type": "function"
    },
    {
      "inputs": [
        {
          "internalType": "string",
          "name": "title",
          "type": "string"
        },
        {
          "internalType": "enum CondominiumLib.Options",
          "name": "option",
          "type": "uint8"
        }
      ],
      "name": "vote",
      "outputs": [],
      "stateMutability": "nonpayable",
      "type": "function"
    }
  ],
  "bytecode": "0x60a0604052348015600f57600080fd5b503373ffffffffffffffffffffffffffffffffffffffff1660808173ffffffffffffffffffffffffffffffffffffffff168152505060805161226161006660003960008181610319015261096b01526122616000f3fe6080604052600436106100dd5760003560e01c80638fc5dad81161007f5780639e1bf985116100595780639e1bf98514610280578063b1583546146102a9578063c12e8063146102d2578063eaf5d9dc146102ee576100dd565b80638fc5dad81461020557806390ca27f31461022e57806396fa1def14610257576100dd565b806343b8c6b1116100bb57806343b8c6b11461015f578063597de987146101885780637b57ee49146101b15780638da5cb5b146101da576100dd565b80630900f010146100e25780630cbcae701461010b57806312cb70c714610136575b600080fd5b3480156100ee57600080fd5b5061010960048036038101906101049190611557565b610317565b005b34801561011757600080fd5b506101206103e8565b60405161012d9190611593565b60405180910390f35b34801561014257600080fd5b5061015d6004803603810190610158919061172a565b610411565b005b34801561016b57600080fd5b50610186600480360381019061018191906117ab565b610593565b005b34801561019457600080fd5b506101af60048036038101906101aa9190611557565b6106bc565b005b3480156101bd57600080fd5b506101d860048036038101906101d3919061185e565b6107d9565b005b3480156101e657600080fd5b506101ef610969565b6040516101fc9190611593565b60405180910390f35b34801561021157600080fd5b5061022c6004803603810190610227919061185e565b61098d565b005b34801561023a57600080fd5b50610255600480360381019061025091906118cc565b610d3e565b005b34801561026357600080fd5b5061027e60048036038101906102799190611960565b610e5e565b005b34801561028c57600080fd5b506102a760048036038101906102a2919061185e565b610f7e565b005b3480156102b557600080fd5b506102d060048036038101906102cb91906119da565b61110e565b005b6102ec60048036038101906102e79190611a1a565b61122e565b005b3480156102fa57600080fd5b5061031560048036038101906103109190611a47565b61134c565b005b7f000000000000000000000000000000000000000000000000000000000000000073ffffffffffffffffffffffffffffffffffffffff163373ffffffffffffffffffffffffffffffffffffffff16146103a5576040517f08c379a000000000000000000000000000000000000000000000000000000000815260040161039c90611b43565b60405180910390fd5b806000806101000a81548173ffffffffffffffffffffffffffffffffffffffff021916908373ffffffffffffffffffffffffffffffffffffffff16021790555050565b60008060009054906101000a900473ffffffffffffffffffffffffffffffffffffffff16905090565b600073ffffffffffffffffffffffffffffffffffffffff1660008054906101000a900473ffffffffffffffffffffffffffffffffffffffff1673ffffffffffffffffffffffffffffffffffffffff16036104a0576040517f08c379a000000000000000000000000000000000000000000000000000000000815260040161049790611baf565b60405180910390fd5b60008060009054906101000a900473ffffffffffffffffffffffffffffffffffffffff1673ffffffffffffffffffffffffffffffffffffffff166312cb70c784846040518363ffffffff1660e01b81526004016104fe929190611c4c565b6000604051808303816000875af115801561051d573d6000803e3d6000fd5b505050506040513d6000823e3d601f19601f820116820180604052508101906105469190611da0565b905080602001517feb10b79f28ae0b520cb7ee8e40115f547bfac852d7167a55d9ae8e028ee23a1182600001518360400151604051610586929190611de9565b60405180910390a2505050565b600073ffffffffffffffffffffffffffffffffffffffff1660008054906101000a900473ffffffffffffffffffffffffffffffffffffffff1673ffffffffffffffffffffffffffffffffffffffff1603610622576040517f08c379a000000000000000000000000000000000000000000000000000000000815260040161061990611baf565b60405180910390fd5b60008054906101000a900473ffffffffffffffffffffffffffffffffffffffff1673ffffffffffffffffffffffffffffffffffffffff166343b8c6b186868686866040518663ffffffff1660e01b8152600401610683959493929190611e90565b600060405180830381600087803b15801561069d57600080fd5b505af11580156106b1573d6000803e3d6000fd5b505050505050505050565b600073ffffffffffffffffffffffffffffffffffffffff1660008054906101000a900473ffffffffffffffffffffffffffffffffffffffff1673ffffffffffffffffffffffffffffffffffffffff160361074b576040517f08c379a000000000000000000000000000000000000000000000000000000000815260040161074290611baf565b60405180910390fd5b60008054906101000a900473ffffffffffffffffffffffffffffffffffffffff1673ffffffffffffffffffffffffffffffffffffffff1663597de987826040518263ffffffff1660e01b81526004016107a49190611593565b600060405180830381600087803b1580156107be57600080fd5b505af11580156107d2573d6000803e3d6000fd5b5050505050565b600073ffffffffffffffffffffffffffffffffffffffff1660008054906101000a900473ffffffffffffffffffffffffffffffffffffffff1673ffffffffffffffffffffffffffffffffffffffff1603610868576040517f08c379a000000000000000000000000000000000000000000000000000000000815260040161085f90611baf565b60405180910390fd5b60008060009054906101000a900473ffffffffffffffffffffffffffffffffffffffff1673ffffffffffffffffffffffffffffffffffffffff16637b57ee49836040518263ffffffff1660e01b81526004016108c49190611ef1565b6000604051808303816000875af11580156108e3573d6000803e3d6000fd5b505050506040513d6000823e3d601f19601f8201168201806040525081019061090c9190612017565b90508060400151600581111561092557610924611e19565b5b81600001517fefe93f21a3369f1228a2589883bc377a76d7335daddc712853688de4617f82ab836020015160405161095d9190611ef1565b60405180910390a35050565b7f000000000000000000000000000000000000000000000000000000000000000081565b600073ffffffffffffffffffffffffffffffffffffffff1660008054906101000a900473ffffffffffffffffffffffffffffffffffffffff1673ffffffffffffffffffffffffffffffffffffffff1603610a1c576040517f08c379a0000000000000000000000000000000000000000000000000000000008152600401610a1390611baf565b60405180910390fd5b60008060009054906101000a900473ffffffffffffffffffffffffffffffffffffffff1673ffffffffffffffffffffffffffffffffffffffff16638fc5dad8836040518263ffffffff1660e01b8152600401610a789190611ef1565b6000604051808303816000875af1158015610a97573d6000803e3d6000fd5b505050506040513d6000823e3d601f19601f82011682018060405250810190610ac09190612017565b905080604001516005811115610ad957610ad8611e19565b5b81600001517fefe93f21a3369f1228a2589883bc377a76d7335daddc712853688de4617f82ab8360200151604051610b119190611ef1565b60405180910390a360026005811115610b2d57610b2c611e19565b5b81604001516005811115610b4457610b43611e19565b5b03610d3a57600380811115610b5c57610b5b611e19565b5b81606001516003811115610b7357610b72611e19565b5b03610c42577f198db6e425fb8aafd1823c6ca50be2d51e5764571a5ae0f0f21c6812e45def0b60008054906101000a900473ffffffffffffffffffffffffffffffffffffffff1673ffffffffffffffffffffffffffffffffffffffff1663d50095846040518163ffffffff1660e01b8152600401602060405180830381865afa158015610c04573d6000803e3d6000fd5b505050506040513d601f19601f82011682018060405250810190610c289190612060565b604051610c359190611593565b60405180910390a1610d39565b60026003811115610c5657610c55611e19565b5b81606001516003811115610c6d57610c6c611e19565b5b03610d38577f274a3b0d5142ec9fc4e77bd3ffc173b4e7c6c64eca73b31a6c6906b184257e7e60008054906101000a900473ffffffffffffffffffffffffffffffffffffffff1673ffffffffffffffffffffffffffffffffffffffff16631df8ba776040518163ffffffff1660e01b8152600401602060405180830381865afa158015610cfe573d6000803e3d6000fd5b505050506040513d601f19601f82011682018060405250810190610d22919061208d565b604051610d2f91906120ba565b60405180910390a15b5b5b5050565b600073ffffffffffffffffffffffffffffffffffffffff1660008054906101000a900473ffffffffffffffffffffffffffffffffffffffff1673ffffffffffffffffffffffffffffffffffffffff1603610dcd576040517f08c379a0000000000000000000000000000000000000000000000000000000008152600401610dc490611baf565b60405180910390fd5b60008054906101000a900473ffffffffffffffffffffffffffffffffffffffff1673ffffffffffffffffffffffffffffffffffffffff166390ca27f383836040518363ffffffff1660e01b8152600401610e2892919061211d565b600060405180830381600087803b158015610e4257600080fd5b505af1158015610e56573d6000803e3d6000fd5b505050505050565b600073ffffffffffffffffffffffffffffffffffffffff1660008054906101000a900473ffffffffffffffffffffffffffffffffffffffff1673ffffffffffffffffffffffffffffffffffffffff1603610eed576040517f08c379a0000000000000000000000000000000000000000000000000000000008152600401610ee490611baf565b60405180910390fd5b60008054906101000a900473ffffffffffffffffffffffffffffffffffffffff1673ffffffffffffffffffffffffffffffffffffffff166396fa1def83836040518363ffffffff1660e01b8152600401610f4892919061215c565b600060405180830381600087803b158015610f6257600080fd5b505af1158015610f76573d6000803e3d6000fd5b505050505050565b600073ffffffffffffffffffffffffffffffffffffffff1660008054906101000a900473ffffffffffffffffffffffffffffffffffffffff1673ffffffffffffffffffffffffffffffffffffffff160361100d576040517f08c379a000000000000000000000000000000000000000000000000000000000815260040161100490611baf565b60405180910390fd5b60008060009054906101000a900473ffffffffffffffffffffffffffffffffffffffff1673ffffffffffffffffffffffffffffffffffffffff16639e1bf985836040518263ffffffff1660e01b81526004016110699190611ef1565b6000604051808303816000875af1158015611088573d6000803e3d6000fd5b505050506040513d6000823e3d601f19601f820116820180604052508101906110b19190612017565b9050806040015160058111156110ca576110c9611e19565b5b81600001517fefe93f21a3369f1228a2589883bc377a76d7335daddc712853688de4617f82ab83602001516040516111029190611ef1565b60405180910390a35050565b600073ffffffffffffffffffffffffffffffffffffffff1660008054906101000a900473ffffffffffffffffffffffffffffffffffffffff1673ffffffffffffffffffffffffffffffffffffffff160361119d576040517f08c379a000000000000000000000000000000000000000000000000000000000815260040161119490611baf565b60405180910390fd5b60008054906101000a900473ffffffffffffffffffffffffffffffffffffffff1673ffffffffffffffffffffffffffffffffffffffff1663b158354683836040518363ffffffff1660e01b81526004016111f8929190612194565b600060405180830381600087803b15801561121257600080fd5b505af1158015611226573d6000803e3d6000fd5b505050505050565b600073ffffffffffffffffffffffffffffffffffffffff1660008054906101000a900473ffffffffffffffffffffffffffffffffffffffff1673ffffffffffffffffffffffffffffffffffffffff16036112bd576040517f08c379a00000000000000000000000000000000000000000000000000000000081526004016112b490611baf565b60405180910390fd5b60008054906101000a900473ffffffffffffffffffffffffffffffffffffffff1673ffffffffffffffffffffffffffffffffffffffff1663c12e806334836040518363ffffffff1660e01b815260040161131791906121bd565b6000604051808303818588803b15801561133057600080fd5b505af1158015611344573d6000803e3d6000fd5b505050505050565b600073ffffffffffffffffffffffffffffffffffffffff1660008054906101000a900473ffffffffffffffffffffffffffffffffffffffff1673ffffffffffffffffffffffffffffffffffffffff16036113db576040517f08c379a00000000000000000000000000000000000000000000000000000000081526004016113d290611baf565b60405180910390fd5b60008060009054906101000a900473ffffffffffffffffffffffffffffffffffffffff1673ffffffffffffffffffffffffffffffffffffffff1663eaf5d9dc868686866040518563ffffffff1660e01b815260040161143d94939291906121d8565b6000604051808303816000875af115801561145c573d6000803e3d6000fd5b505050506040513d6000823e3d601f19601f820116820180604052508101906114859190612017565b90508060400151600581111561149e5761149d611e19565b5b81600001517fefe93f21a3369f1228a2589883bc377a76d7335daddc712853688de4617f82ab83602001516040516114d69190611ef1565b60405180910390a35050505050565b6000604051905090565b600080fd5b600080fd5b600073ffffffffffffffffffffffffffffffffffffffff82169050919050565b6000611524826114f9565b9050919050565b61153481611519565b811461153f57600080fd5b50565b6000813590506115518161152b565b92915050565b60006020828403121561156d5761156c6114ef565b5b600061157b84828501611542565b91505092915050565b61158d81611519565b82525050565b60006020820190506115a86000830184611584565b92915050565b600080fd5b600080fd5b6000601f19601f8301169050919050565b7f4e487b7100000000000000000000000000000000000000000000000000000000600052604160045260246000fd5b611601826115b8565b810181811067ffffffffffffffff821117156116205761161f6115c9565b5b80604052505050565b60006116336114e5565b905061163f82826115f8565b919050565b600067ffffffffffffffff82111561165f5761165e6115c9565b5b611668826115b8565b9050602081019050919050565b82818337600083830152505050565b600061169761169284611644565b611629565b9050828152602081018484840111156116b3576116b26115b3565b5b6116be848285611675565b509392505050565b600082601f8301126116db576116da6115ae565b5b81356116eb848260208601611684565b91505092915050565b6000819050919050565b611707816116f4565b811461171257600080fd5b50565b600081359050611724816116fe565b92915050565b60008060408385031215611741576117406114ef565b5b600083013567ffffffffffffffff81111561175f5761175e6114f4565b5b61176b858286016116c6565b925050602061177c85828601611715565b9150509250929050565b6004811061179357600080fd5b50565b6000813590506117a581611786565b92915050565b600080600080600060a086880312156117c7576117c66114ef565b5b600086013567ffffffffffffffff8111156117e5576117e46114f4565b5b6117f1888289016116c6565b955050602086013567ffffffffffffffff811115611812576118116114f4565b5b61181e888289016116c6565b945050604061182f88828901611796565b935050606061184088828901611715565b925050608061185188828901611542565b9150509295509295909350565b600060208284031215611874576118736114ef565b5b600082013567ffffffffffffffff811115611892576118916114f4565b5b61189e848285016116c6565b91505092915050565b600481106118b457600080fd5b50565b6000813590506118c6816118a7565b92915050565b600080604083850312156118e3576118e26114ef565b5b600083013567ffffffffffffffff811115611901576119006114f4565b5b61190d858286016116c6565b925050602061191e858286016118b7565b9150509250929050565b60008115159050919050565b61193d81611928565b811461194857600080fd5b50565b60008135905061195a81611934565b92915050565b60008060408385031215611977576119766114ef565b5b600061198585828601611542565b92505060206119968582860161194b565b9150509250929050565b600061ffff82169050919050565b6119b7816119a0565b81146119c257600080fd5b50565b6000813590506119d4816119ae565b92915050565b600080604083850312156119f1576119f06114ef565b5b60006119ff85828601611542565b9250506020611a10858286016119c5565b9150509250929050565b600060208284031215611a3057611a2f6114ef565b5b6000611a3e848285016119c5565b91505092915050565b60008060008060808587031215611a6157611a606114ef565b5b600085013567ffffffffffffffff811115611a7f57611a7e6114f4565b5b611a8b878288016116c6565b945050602085013567ffffffffffffffff811115611aac57611aab6114f4565b5b611ab8878288016116c6565b9350506040611ac987828801611715565b9250506060611ada87828801611542565b91505092959194509250565b600082825260208201905092915050565b7f596f7520646f206e6f742068617665207065726d697373696f6e000000000000600082015250565b6000611b2d601a83611ae6565b9150611b3882611af7565b602082019050919050565b60006020820190508181036000830152611b5c81611b20565b9050919050565b7f596f75206d757374207570677261646520666972737400000000000000000000600082015250565b6000611b99601683611ae6565b9150611ba482611b63565b602082019050919050565b60006020820190508181036000830152611bc881611b8c565b9050919050565b600081519050919050565b60005b83811015611bf8578082015181840152602081019050611bdd565b60008484015250505050565b6000611c0f82611bcf565b611c198185611ae6565b9350611c29818560208601611bda565b611c32816115b8565b840191505092915050565b611c46816116f4565b82525050565b60006040820190508181036000830152611c668185611c04565b9050611c756020830184611c3d565b9392505050565b600080fd5b600080fd5b600081519050611c958161152b565b92915050565b600081519050611caa816116fe565b92915050565b6000611cc3611cbe84611644565b611629565b905082815260208101848484011115611cdf57611cde6115b3565b5b611cea848285611bda565b509392505050565b600082601f830112611d0757611d066115ae565b5b8151611d17848260208601611cb0565b91505092915050565b600060608284031215611d3657611d35611c7c565b5b611d406060611629565b90506000611d5084828501611c86565b6000830152506020611d6484828501611c9b565b602083015250604082015167ffffffffffffffff811115611d8857611d87611c81565b5b611d9484828501611cf2565b60408301525092915050565b600060208284031215611db657611db56114ef565b5b600082015167ffffffffffffffff811115611dd457611dd36114f4565b5b611de084828501611d20565b91505092915050565b6000604082019050611dfe6000830185611584565b8181036020830152611e108184611c04565b90509392505050565b7f4e487b7100000000000000000000000000000000000000000000000000000000600052602160045260246000fd5b60048110611e5957611e58611e19565b5b50565b6000819050611e6a82611e48565b919050565b6000611e7a82611e5c565b9050919050565b611e8a81611e6f565b82525050565b600060a0820190508181036000830152611eaa8188611c04565b90508181036020830152611ebe8187611c04565b9050611ecd6040830186611e81565b611eda6060830185611c3d565b611ee76080830184611584565b9695505050505050565b60006020820190508181036000830152611f0b8184611c04565b905092915050565b6000819050919050565b611f2681611f13565b8114611f3157600080fd5b50565b600081519050611f4381611f1d565b92915050565b60068110611f5657600080fd5b50565b600081519050611f6881611f49565b92915050565b600081519050611f7d81611786565b92915050565b600060808284031215611f9957611f98611c7c565b5b611fa36080611629565b90506000611fb384828501611f34565b600083015250602082015167ffffffffffffffff811115611fd757611fd6611c81565b5b611fe384828501611cf2565b6020830152506040611ff784828501611f59565b604083015250606061200b84828501611f6e565b60608301525092915050565b60006020828403121561202d5761202c6114ef565b5b600082015167ffffffffffffffff81111561204b5761204a6114f4565b5b61205784828501611f83565b91505092915050565b600060208284031215612076576120756114ef565b5b600061208484828501611c86565b91505092915050565b6000602082840312156120a3576120a26114ef565b5b60006120b184828501611c9b565b91505092915050565b60006020820190506120cf6000830184611c3d565b92915050565b600481106120e6576120e5611e19565b5b50565b60008190506120f7826120d5565b919050565b6000612107826120e9565b9050919050565b612117816120fc565b82525050565b600060408201905081810360008301526121378185611c04565b9050612146602083018461210e565b9392505050565b61215681611928565b82525050565b60006040820190506121716000830185611584565b61217e602083018461214d565b9392505050565b61218e816119a0565b82525050565b60006040820190506121a96000830185611584565b6121b66020830184612185565b9392505050565b60006020820190506121d26000830184612185565b92915050565b600060808201905081810360008301526121f28187611c04565b905081810360208301526122068186611c04565b90506122156040830185611c3d565b6122226060830184611584565b9594505050505056fea2646970667358221220bbe651cf405afbb76d069273969d8cdbe9f33baaba64ff79849794c9cb2c3f5964736f6c634300081c0033",
  "linkReferences": {},
  "deployedLinkReferences": {}
}