{
  "_format": "hh-sol-artifact-1",
  "contractName": "CondominiumAdapter",
  "sourceName": "contracts/CondominiumAdapter.sol",
  "abi": [
    {
      "inputs": [],
      "stateMutability": "nonpayable",
      "type": "constructor"
    },
    {
      "anonymous": false,
      "inputs": [
        {
          "indexed": false,
          "internalType": "address",
          "name": "manager",
          "type": "address"
        }
      ],
      "name": "ManagerChanged",
      "type": "event"
    },
    {
      "anonymous": false,
      "inputs": [
        {
          "indexed": false,
          "internalType": "uint256",
          "name": "amount",
          "type": "uint256"
        }
      ],
      "name": "QuotaChanged",
      "type": "event"
    },
    {
      "anonymous": false,
      "inputs": [
        {
          "indexed": true,
          "internalType": "bytes32",
          "name": "topicId",
          "type": "bytes32"
        },
        {
          "indexed": false,
          "internalType": "string",
          "name": "title",
          "type": "string"
        },
        {
          "indexed": true,
          "internalType": "enum CondominiumLib.Status",
          "name": "status",
          "type": "uint8"
        }
      ],
      "name": "TopicChanged",
      "type": "event"
    },
    {
      "anonymous": false,
      "inputs": [
        {
          "indexed": false,
          "internalType": "address",
          "name": "to",
          "type": "address"
        },
        {
          "indexed": true,
          "internalType": "uint256",
          "name": "amount",
          "type": "uint256"
        },
        {
          "indexed": false,
          "internalType": "string",
          "name": "topic",
          "type": "string"
        }
      ],
      "name": "Transfer",
      "type": "event"
    },
    {
      "inputs": [
        {
          "internalType": "address",
          "name": "resident",
          "type": "address"
        },
        {
          "internalType": "uint16",
          "name": "residenceId",
          "type": "uint16"
        }
      ],
      "name": "addResident",
      "outputs": [],
      "stateMutability": "nonpayable",
      "type": "function"
    },
    {
      "inputs": [
        {
          "internalType": "string",
          "name": "title",
          "type": "string"
        },
        {
          "internalType": "string",
          "name": "description",
          "type": "string"
        },
        {
          "internalType": "enum CondominiumLib.Category",
          "name": "category",
          "type": "uint8"
        },
        {
          "internalType": "uint256",
          "name": "amount",
          "type": "uint256"
        },
        {
          "internalType": "address",
          "name": "responsible",
          "type": "address"
        }
      ],
      "name": "addTopic",
      "outputs": [],
      "stateMutability": "nonpayable",
      "type": "function"
    },
    {
      "inputs": [
        {
          "internalType": "string",
          "name": "title",
          "type": "string"
        }
      ],
      "name": "closeVoting",
      "outputs": [],
      "stateMutability": "nonpayable",
      "type": "function"
    },
    {
      "inputs": [
        {
          "internalType": "string",
          "name": "topicToEdit",
          "type": "string"
        },
        {
          "internalType": "string",
          "name": "description",
          "type": "string"
        },
        {
          "internalType": "uint256",
          "name": "amount",
          "type": "uint256"
        },
        {
          "internalType": "address",
          "name": "responsible",
          "type": "address"
        }
      ],
      "name": "editTopic",
      "outputs": [],
      "stateMutability": "nonpayable",
      "type": "function"
    },
    {
      "inputs": [],
      "name": "getImplementationAddress",
      "outputs": [
        {
          "internalType": "address",
          "name": "",
          "type": "address"
        }
      ],
      "stateMutability": "view",
      "type": "function"
    },
    {
      "inputs": [],
      "name": "getManager",
      "outputs": [
        {
          "internalType": "address",
          "name": "",
          "type": "address"
        }
      ],
      "stateMutability": "view",
      "type": "function"
    },
    {
      "inputs": [],
      "name": "getQuota",
      "outputs": [
        {
          "internalType": "uint256",
          "name": "",
          "type": "uint256"
        }
      ],
      "stateMutability": "view",
      "type": "function"
    },
    {
      "inputs": [
        {
          "internalType": "address",
          "name": "resident",
          "type": "address"
        }
      ],
      "name": "getResident",
      "outputs": [
        {
          "components": [
            {
              "internalType": "address",
              "name": "wallet",
              "type": "address"
            },
            {
              "internalType": "uint16",
              "name": "residence",
              "type": "uint16"
            },
            {
              "internalType": "bool",
              "name": "isCounselor",
              "type": "bool"
            },
            {
              "internalType": "bool",
              "name": "isManager",
              "type": "bool"
            },
            {
              "internalType": "uint256",
              "name": "nextPayment",
              "type": "uint256"
            }
          ],
          "internalType": "struct CondominiumLib.Resident",
          "name": "",
          "type": "tuple"
        }
      ],
      "stateMutability": "view",
      "type": "function"
    },
    {
      "inputs": [
        {
          "internalType": "uint256",
          "name": "page",
          "type": "uint256"
        },
        {
          "internalType": "uint256",
          "name": "pageSize",
          "type": "uint256"
        }
      ],
      "name": "getResidents",
      "outputs": [
        {
          "components": [
            {
              "components": [
                {
                  "internalType": "address",
                  "name": "wallet",
                  "type": "address"
                },
                {
                  "internalType": "uint16",
                  "name": "residence",
                  "type": "uint16"
                },
                {
                  "internalType": "bool",
                  "name": "isCounselor",
                  "type": "bool"
                },
                {
                  "internalType": "bool",
                  "name": "isManager",
                  "type": "bool"
                },
                {
                  "internalType": "uint256",
                  "name": "nextPayment",
                  "type": "uint256"
                }
              ],
              "internalType": "struct CondominiumLib.Resident[]",
              "name": "residents",
              "type": "tuple[]"
            },
            {
              "internalType": "uint256",
              "name": "total",
              "type": "uint256"
            }
          ],
          "internalType": "struct CondominiumLib.ResidentPage",
          "name": "",
          "type": "tuple"
        }
      ],
      "stateMutability": "view",
      "type": "function"
    },
    {
      "inputs": [
        {
          "internalType": "string",
          "name": "title",
          "type": "string"
        }
      ],
      "name": "getTopic",
      "outputs": [
        {
          "components": [
            {
              "internalType": "string",
              "name": "title",
              "type": "string"
            },
            {
              "internalType": "string",
              "name": "description",
              "type": "string"
            },
            {
              "internalType": "enum CondominiumLib.Status",
              "name": "status",
              "type": "uint8"
            },
            {
              "internalType": "enum CondominiumLib.Category",
              "name": "category",
              "type": "uint8"
            },
            {
              "internalType": "uint256",
              "name": "amount",
              "type": "uint256"
            },
            {
              "internalType": "address",
              "name": "responsible",
              "type": "address"
            },
            {
              "internalType": "uint256",
              "name": "createdDate",
              "type": "uint256"
            },
            {
              "internalType": "uint256",
              "name": "startDate",
              "type": "uint256"
            },
            {
              "internalType": "uint256",
              "name": "endDate",
              "type": "uint256"
            }
          ],
          "internalType": "struct CondominiumLib.Topic",
          "name": "",
          "type": "tuple"
        }
      ],
      "stateMutability": "view",
      "type": "function"
    },
    {
      "inputs": [
        {
          "internalType": "uint256",
          "name": "page",
          "type": "uint256"
        },
        {
          "internalType": "uint256",
          "name": "pageSize",
          "type": "uint256"
        }
      ],
      "name": "getTopics",
      "outputs": [
        {
          "components": [
            {
              "components": [
                {
                  "internalType": "string",
                  "name": "title",
                  "type": "string"
                },
                {
                  "internalType": "string",
                  "name": "description",
                  "type": "string"
                },
                {
                  "internalType": "enum CondominiumLib.Status",
                  "name": "status",
                  "type": "uint8"
                },
                {
                  "internalType": "enum CondominiumLib.Category",
                  "name": "category",
                  "type": "uint8"
                },
                {
                  "internalType": "uint256",
                  "name": "amount",
                  "type": "uint256"
                },
                {
                  "internalType": "address",
                  "name": "responsible",
                  "type": "address"
                },
                {
                  "internalType": "uint256",
                  "name": "createdDate",
                  "type": "uint256"
                },
                {
                  "internalType": "uint256",
                  "name": "startDate",
                  "type": "uint256"
                },
                {
                  "internalType": "uint256",
                  "name": "endDate",
                  "type": "uint256"
                }
              ],
              "internalType": "struct CondominiumLib.Topic[]",
              "name": "topics",
              "type": "tuple[]"
            },
            {
              "internalType": "uint256",
              "name": "total",
              "type": "uint256"
            }
          ],
          "internalType": "struct CondominiumLib.TopicPage",
          "name": "",
          "type": "tuple"
        }
      ],
      "stateMutability": "view",
      "type": "function"
    },
    {
      "inputs": [
        {
          "internalType": "string",
          "name": "topicTitle",
          "type": "string"
        }
      ],
      "name": "getVotes",
      "outputs": [
        {
          "components": [
            {
              "internalType": "address",
              "name": "resident",
              "type": "address"
            },
            {
              "internalType": "uint16",
              "name": "residence",
              "type": "uint16"
            },
            {
              "internalType": "enum CondominiumLib.Options",
              "name": "option",
              "type": "uint8"
            },
            {
              "internalType": "uint256",
              "name": "timestamp",
              "type": "uint256"
            }
          ],
          "internalType": "struct CondominiumLib.Vote[]",
          "name": "",
          "type": "tuple[]"
        }
      ],
      "stateMutability": "view",
      "type": "function"
    },
    {
      "inputs": [
        {
          "internalType": "string",
          "name": "title",
          "type": "string"
        }
      ],
      "name": "openVoting",
      "outputs": [],
      "stateMutability": "nonpayable",
      "type": "function"
    },
    {
      "inputs": [],
      "name": "owner",
      "outputs": [
        {
          "internalType": "address",
          "name": "",
          "type": "address"
        }
      ],
      "stateMutability": "view",
      "type": "function"
    },
    {
      "inputs": [
        {
          "internalType": "uint16",
          "name": "residenceId",
          "type": "uint16"
        }
      ],
      "name": "payQuota",
      "outputs": [],
      "stateMutability": "payable",
      "type": "function"
    },
    {
      "inputs": [
        {
          "internalType": "address",
          "name": "resident",
          "type": "address"
        }
      ],
      "name": "removeResident",
      "outputs": [],
      "stateMutability": "nonpayable",
      "type": "function"
    },
    {
      "inputs": [
        {
          "internalType": "string",
          "name": "title",
          "type": "string"
        }
      ],
      "name": "removeTopic",
      "outputs": [],
      "stateMutability": "nonpayable",
      "type": "function"
    },
    {
      "inputs": [
        {
          "internalType": "address",
          "name": "resident",
          "type": "address"
        },
        {
          "internalType": "bool",
          "name": "isEntering",
          "type": "bool"
        }
      ],
      "name": "setCounselor",
      "outputs": [],
      "stateMutability": "nonpayable",
      "type": "function"
    },
    {
      "inputs": [
        {
          "internalType": "string",
          "name": "topicTitle",
          "type": "string"
        },
        {
          "internalType": "uint256",
          "name": "amount",
          "type": "uint256"
        }
      ],
      "name": "transfer",
      "outputs": [],
      "stateMutability": "nonpayable",
      "type": "function"
    },
    {
      "inputs": [
        {
          "internalType": "address",
          "name": "newImplementation",
          "type": "address"
        }
      ],
      "name": "upgrade",
      "outputs": [],
      "stateMutability": "nonpayable",
      "type": "function"
    },
    {
      "inputs": [
        {
          "internalType": "string",
          "name": "title",
          "type": "string"
        },
        {
          "internalType": "enum CondominiumLib.Options",
          "name": "option",
          "type": "uint8"
        }
      ],
      "name": "vote",
      "outputs": [],
      "stateMutability": "nonpayable",
      "type": "function"
    }
  ],
  "bytecode": "0x60a0604052348015600f57600080fd5b503360805260805161262c610036600039600081816103310152610473015261262c6000f3fe60806040526004361061016a5760003560e01c8063805265e5116100cb5780639e1bf9851161007f578063c12e806311610059578063c12e806314610420578063d500958414610433578063eaf5d9dc1461044857600080fd5b80639e1bf985146103b3578063a7107f02146103d3578063b15835461461040057600080fd5b80638fc5dad8116100b05780638fc5dad81461035357806390ca27f31461037357806396fa1def1461039357600080fd5b8063805265e5146102f25780638da5cb5b1461031f57600080fd5b8063474502d811610122578063597de98711610107578063597de987146102855780637932938b146102a55780637b57ee49146102d257600080fd5b8063474502d81461022b57806356ea46d91461025857600080fd5b806312cb70c71161015357806312cb70c7146101c85780631df8ba77146101e857806343b8c6b11461020b57600080fd5b80630900f0101461016f5780630cbcae7014610191575b600080fd5b34801561017b57600080fd5b5061018f61018a3660046116e6565b610468565b005b34801561019d57600080fd5b506000546001600160a01b03165b6040516001600160a01b0390911681526020015b60405180910390f35b3480156101d457600080fd5b5061018f6101e336600461183f565b61051f565b3480156101f457600080fd5b506101fd610645565b6040519081526020016101bf565b34801561021757600080fd5b5061018f610226366004611891565b610706565b34801561023757600080fd5b5061024b61024636600461192b565b6107d7565b6040516101bf9190611aa3565b34801561026457600080fd5b50610278610273366004611ab6565b610909565b6040516101bf9190611ad8565b34801561029157600080fd5b5061018f6102a03660046116e6565b6109fe565b3480156102b157600080fd5b506102c56102c0366004611ab6565b610abb565b6040516101bf9190611b54565b3480156102de57600080fd5b5061018f6102ed36600461192b565b610ba7565b3480156102fe57600080fd5b5061031261030d36600461192b565b610cd7565b6040516101bf9190611bf7565b34801561032b57600080fd5b506101ab7f000000000000000000000000000000000000000000000000000000000000000081565b34801561035f57600080fd5b5061018f61036e36600461192b565b610dae565b34801561037f57600080fd5b5061018f61038e366004611c73565b6110b2565b34801561039f57600080fd5b5061018f6103ae366004611cd3565b611179565b3480156103bf57600080fd5b5061018f6103ce36600461192b565b611212565b3480156103df57600080fd5b506103f36103ee3660046116e6565b6112a2565b6040516101bf9190611d01565b34801561040c57600080fd5b5061018f61041b366004611d5b565b611398565b61018f61042e366004611d89565b611433565b34801561043f57600080fd5b506101ab6114dc565b34801561045457600080fd5b5061018f610463366004611da6565b611598565b336001600160a01b037f000000000000000000000000000000000000000000000000000000000000000016146104e55760405162461bcd60e51b815260206004820152601a60248201527f596f7520646f206e6f742068617665207065726d697373696f6e00000000000060448201526064015b60405180910390fd5b600080547fffffffffffffffffffffffff0000000000000000000000000000000000000000166001600160a01b0392909216919091179055565b6000546001600160a01b03166105655760405162461bcd60e51b815260206004820152601660248201526000805160206125d783398151915260448201526064016104dc565b600080546040517f12cb70c70000000000000000000000000000000000000000000000000000000081526001600160a01b03909116906312cb70c7906105b19086908690600401611e2b565b6000604051808303816000875af11580156105d0573d6000803e3d6000fd5b505050506040513d6000823e601f3d908101601f191682016040526105f89190810190611e9d565b905080602001517feb10b79f28ae0b520cb7ee8e40115f547bfac852d7167a55d9ae8e028ee23a1182600001518360400151604051610638929190611f49565b60405180910390a2505050565b600080546001600160a01b031661068c5760405162461bcd60e51b815260206004820152601660248201526000805160206125d783398151915260448201526064016104dc565b60008054906101000a90046001600160a01b03166001600160a01b0316631df8ba776040518163ffffffff1660e01b8152600401602060405180830381865afa1580156106dd573d6000803e3d6000fd5b505050506040513d601f19601f820116820180604052508101906107019190611f6b565b905090565b6000546001600160a01b031661074c5760405162461bcd60e51b815260206004820152601660248201526000805160206125d783398151915260448201526064016104dc565b6000546040517f43b8c6b10000000000000000000000000000000000000000000000000000000081526001600160a01b03909116906343b8c6b19061079d9088908890889088908890600401611f84565b600060405180830381600087803b1580156107b757600080fd5b505af11580156107cb573d6000803e3d6000fd5b505050505b5050505050565b61082d60408051610120810182526060808252602082015290810160008152602001600081526020016000815260200160006001600160a01b031681526020016000815260200160008152602001600081525090565b6000546001600160a01b03166108735760405162461bcd60e51b815260206004820152601660248201526000805160206125d783398151915260448201526064016104dc565b6000546040517f474502d80000000000000000000000000000000000000000000000000000000081526001600160a01b039091169063474502d8906108bc908590600401611fda565b600060405180830381865afa1580156108d9573d6000803e3d6000fd5b505050506040513d6000823e601f3d908101601f1916820160405261090191908101906120da565b90505b919050565b6040805180820190915260608152600060208201526000546001600160a01b03166109645760405162461bcd60e51b815260206004820152601660248201526000805160206125d783398151915260448201526064016104dc565b6000546040517f56ea46d900000000000000000000000000000000000000000000000000000000815260048101859052602481018490526001600160a01b03909116906356ea46d990604401600060405180830381865afa1580156109cd573d6000803e3d6000fd5b505050506040513d6000823e601f3d908101601f191682016040526109f59190810190612133565b90505b92915050565b6000546001600160a01b0316610a445760405162461bcd60e51b815260206004820152601660248201526000805160206125d783398151915260448201526064016104dc565b6000546040517f597de9870000000000000000000000000000000000000000000000000000000081526001600160a01b0383811660048301529091169063597de98790602401600060405180830381600087803b158015610aa457600080fd5b505af11580156107d0573d6000803e3d6000fd5b50565b6040805180820190915260608152600060208201526000546001600160a01b0316610b165760405162461bcd60e51b815260206004820152601660248201526000805160206125d783398151915260448201526064016104dc565b6000546040517f7932938b00000000000000000000000000000000000000000000000000000000815260048101859052602481018490526001600160a01b0390911690637932938b90604401600060405180830381865afa158015610b7f573d6000803e3d6000fd5b505050506040513d6000823e601f3d908101601f191682016040526109f591908101906122be565b6000546001600160a01b0316610bed5760405162461bcd60e51b815260206004820152601660248201526000805160206125d783398151915260448201526064016104dc565b600080546040517f7b57ee490000000000000000000000000000000000000000000000000000000081526001600160a01b0390911690637b57ee4990610c37908590600401611fda565b6000604051808303816000875af1158015610c56573d6000803e3d6000fd5b505050506040513d6000823e601f3d908101601f19168201604052610c7e919081019061239e565b905080604001516005811115610c9657610c966119b8565b815160208301516040517fefe93f21a3369f1228a2589883bc377a76d7335daddc712853688de4617f82ab91610ccb91611fda565b60405180910390a35050565b6000546060906001600160a01b0316610d205760405162461bcd60e51b815260206004820152601660248201526000805160206125d783398151915260448201526064016104dc565b6000546040517f805265e50000000000000000000000000000000000000000000000000000000081526001600160a01b039091169063805265e590610d69908590600401611fda565b600060405180830381865afa158015610d86573d6000803e3d6000fd5b505050506040513d6000823e601f3d908101601f191682016040526109019190810190612441565b6000546001600160a01b0316610df45760405162461bcd60e51b815260206004820152601660248201526000805160206125d783398151915260448201526064016104dc565b600080546040517f8fc5dad80000000000000000000000000000000000000000000000000000000081526001600160a01b0390911690638fc5dad890610e3e908590600401611fda565b6000604051808303816000875af1158015610e5d573d6000803e3d6000fd5b505050506040513d6000823e601f3d908101601f19168201604052610e85919081019061239e565b905080604001516005811115610e9d57610e9d6119b8565b815160208301516040517fefe93f21a3369f1228a2589883bc377a76d7335daddc712853688de4617f82ab91610ed291611fda565b60405180910390a3600281604001516005811115610ef257610ef26119b8565b036110ae57600381606001516003811115610f0f57610f0f6119b8565b03610fd957600054604080517fd500958400000000000000000000000000000000000000000000000000000000815290517f198db6e425fb8aafd1823c6ca50be2d51e5764571a5ae0f0f21c6812e45def0b926001600160a01b03169163d50095849160048083019260209291908290030181865afa158015610f96573d6000803e3d6000fd5b505050506040513d601f19601f82011682018060405250810190610fba919061252c565b6040516001600160a01b03909116815260200160405180910390a15050565b600281606001516003811115610ff157610ff16119b8565b036110ae57600054604080517f1df8ba7700000000000000000000000000000000000000000000000000000000815290517f274a3b0d5142ec9fc4e77bd3ffc173b4e7c6c64eca73b31a6c6906b184257e7e926001600160a01b031691631df8ba779160048083019260209291908290030181865afa158015611078573d6000803e3d6000fd5b505050506040513d601f19601f8201168201806040525081019061109c9190611f6b565b60405190815260200160405180910390a15b5050565b6000546001600160a01b03166110f85760405162461bcd60e51b815260206004820152601660248201526000805160206125d783398151915260448201526064016104dc565b6000546040517f90ca27f30000000000000000000000000000000000000000000000000000000081526001600160a01b03909116906390ca27f3906111439085908590600401612549565b600060405180830381600087803b15801561115d57600080fd5b505af1158015611171573d6000803e3d6000fd5b505050505050565b6000546001600160a01b03166111bf5760405162461bcd60e51b815260206004820152601660248201526000805160206125d783398151915260448201526064016104dc565b6000546040517f96fa1def0000000000000000000000000000000000000000000000000000000081526001600160a01b0384811660048301528315156024830152909116906396fa1def90604401611143565b6000546001600160a01b03166112585760405162461bcd60e51b815260206004820152601660248201526000805160206125d783398151915260448201526064016104dc565b600080546040517f9e1bf9850000000000000000000000000000000000000000000000000000000081526001600160a01b0390911690639e1bf98590610c37908590600401611fda565b6040805160a081018252600080825260208201819052918101829052606081018290526080810182905290546001600160a01b03166113115760405162461bcd60e51b815260206004820152601660248201526000805160206125d783398151915260448201526064016104dc565b6000546040517fa7107f020000000000000000000000000000000000000000000000000000000081526001600160a01b0384811660048301529091169063a7107f029060240160a060405180830381865afa158015611374573d6000803e3d6000fd5b505050506040513d601f19601f820116820180604052508101906109019190612574565b6000546001600160a01b03166113de5760405162461bcd60e51b815260206004820152601660248201526000805160206125d783398151915260448201526064016104dc565b6000546040517fb15835460000000000000000000000000000000000000000000000000000000081526001600160a01b03848116600483015261ffff841660248301529091169063b158354690604401611143565b6000546001600160a01b03166114795760405162461bcd60e51b815260206004820152601660248201526000805160206125d783398151915260448201526064016104dc565b6000546040517fc12e806300000000000000000000000000000000000000000000000000000000815261ffff831660048201526001600160a01b039091169063c12e80639034906024016000604051808303818588803b15801561115d57600080fd5b600080546001600160a01b03166115235760405162461bcd60e51b815260206004820152601660248201526000805160206125d783398151915260448201526064016104dc565b60008054906101000a90046001600160a01b03166001600160a01b031663d50095846040518163ffffffff1660e01b8152600401602060405180830381865afa158015611574573d6000803e3d6000fd5b505050506040513d601f19601f82011682018060405250810190610701919061252c565b6000546001600160a01b03166115de5760405162461bcd60e51b815260206004820152601660248201526000805160206125d783398151915260448201526064016104dc565b600080546040517feaf5d9dc0000000000000000000000000000000000000000000000000000000081526001600160a01b039091169063eaf5d9dc9061162e908890889088908890600401612590565b6000604051808303816000875af115801561164d573d6000803e3d6000fd5b505050506040513d6000823e601f3d908101601f19168201604052611675919081019061239e565b90508060400151600581111561168d5761168d6119b8565b815160208301516040517fefe93f21a3369f1228a2589883bc377a76d7335daddc712853688de4617f82ab916116c291611fda565b60405180910390a35050505050565b6001600160a01b0381168114610ab857600080fd5b6000602082840312156116f857600080fd5b8135611703816116d1565b9392505050565b634e487b7160e01b600052604160045260246000fd5b604051610120810167ffffffffffffffff811182821017156117445761174461170a565b60405290565b6040805190810167ffffffffffffffff811182821017156117445761174461170a565b6040516080810167ffffffffffffffff811182821017156117445761174461170a565b604051601f8201601f1916810167ffffffffffffffff811182821017156117b9576117b961170a565b604052919050565b600067ffffffffffffffff8211156117db576117db61170a565b50601f01601f191660200190565b600082601f8301126117fa57600080fd5b813561180d611808826117c1565b611790565b81815284602083860101111561182257600080fd5b816020850160208301376000918101602001919091529392505050565b6000806040838503121561185257600080fd5b823567ffffffffffffffff81111561186957600080fd5b611875858286016117e9565b95602094909401359450505050565b60048110610ab857600080fd5b600080600080600060a086880312156118a957600080fd5b853567ffffffffffffffff8111156118c057600080fd5b6118cc888289016117e9565b955050602086013567ffffffffffffffff8111156118e957600080fd5b6118f5888289016117e9565b945050604086013561190681611884565b925060608601359150608086013561191d816116d1565b809150509295509295909350565b60006020828403121561193d57600080fd5b813567ffffffffffffffff81111561195457600080fd5b611960848285016117e9565b949350505050565b60005b8381101561198357818101518382015260200161196b565b50506000910152565b600081518084526119a4816020860160208601611968565b601f01601f19169290920160200192915050565b634e487b7160e01b600052602160045260246000fd5b600681106119de576119de6119b8565b9052565b60048110610ab857610ab86119b8565b6119de816119e2565b600081516101208452611a1261012085018261198c565b905060208301518482036020860152611a2b828261198c565b9150506040830151611a4060408601826119ce565b506060830151611a5360608601826119f2565b506080830151608085015260a0830151611a7860a08601826001600160a01b03169052565b5060c083015160c085015260e083015160e08501526101008301516101008501528091505092915050565b6020815260006109f560208301846119fb565b60008060408385031215611ac957600080fd5b50508035926020909101359150565b6020815260006060820183516040602085015281815180845260808601915060808160051b870101935060208301925060005b81811015611b3c57607f19878603018352611b278585516119fb565b94506020938401939290920191600101611b0b565b50505050602084015160408401528091505092915050565b602080825282516040838301528051606084018190526000929190910190829060808501905b80831015611be057611bc98285516001600160a01b03815116825261ffff6020820151166020830152604081015115156040830152606081015115156060830152608081015160808301525050565b60a082019150602084019350600183019250611b7a565b506020860151604086015280935050505092915050565b602080825282518282018190526000918401906040840190835b81811015611c685783516001600160a01b03815116845261ffff60208201511660208501526040810151611c44816119e2565b60408501526060908101519084015260209390930192608090920191600101611c11565b509095945050505050565b60008060408385031215611c8657600080fd5b823567ffffffffffffffff811115611c9d57600080fd5b611ca9858286016117e9565b9250506020830135611cba81611884565b809150509250929050565b8015158114610ab857600080fd5b60008060408385031215611ce657600080fd5b8235611cf1816116d1565b91506020830135611cba81611cc5565b60a081016109f882846001600160a01b03815116825261ffff6020820151166020830152604081015115156040830152606081015115156060830152608081015160808301525050565b61ffff81168114610ab857600080fd5b60008060408385031215611d6e57600080fd5b8235611d79816116d1565b91506020830135611cba81611d4b565b600060208284031215611d9b57600080fd5b813561170381611d4b565b60008060008060808587031215611dbc57600080fd5b843567ffffffffffffffff811115611dd357600080fd5b611ddf878288016117e9565b945050602085013567ffffffffffffffff811115611dfc57600080fd5b611e08878288016117e9565b935050604085013591506060850135611e20816116d1565b939692955090935050565b604081526000611e3e604083018561198c565b90508260208301529392505050565b8051610904816116d1565b600082601f830112611e6957600080fd5b8151611e77611808826117c1565b818152846020838601011115611e8c57600080fd5b611960826020830160208701611968565b600060208284031215611eaf57600080fd5b815167ffffffffffffffff811115611ec657600080fd5b820160608185031215611ed857600080fd5b6040516060810167ffffffffffffffff81118282101715611efb57611efb61170a565b6040528151611f09816116d1565b815260208281015190820152604082015167ffffffffffffffff811115611f2f57600080fd5b611f3b86828501611e58565b604083015250949350505050565b6001600160a01b0383168152604060208201526000611960604083018461198c565b600060208284031215611f7d57600080fd5b5051919050565b60a081526000611f9760a083018861198c565b8281036020840152611fa9818861198c565b915050611fb5856119e2565b8460408301528360608301526001600160a01b03831660808301529695505050505050565b6020815260006109f5602083018461198c565b80516006811061090457600080fd5b805161090481611884565b6000610120828403121561201a57600080fd5b612022611720565b9050815167ffffffffffffffff81111561203b57600080fd5b61204784828501611e58565b825250602082015167ffffffffffffffff81111561206457600080fd5b61207084828501611e58565b60208301525061208260408301611fed565b604082015261209360608301611ffc565b6060820152608082810151908201526120ae60a08301611e4d565b60a082015260c0828101519082015260e080830151908201526101009182015191810191909152919050565b6000602082840312156120ec57600080fd5b815167ffffffffffffffff81111561210357600080fd5b61196084828501612007565b600067ffffffffffffffff8211156121295761212961170a565b5060051b60200190565b60006020828403121561214557600080fd5b815167ffffffffffffffff81111561215c57600080fd5b82016040818503121561216e57600080fd5b61217661174a565b815167ffffffffffffffff81111561218d57600080fd5b8201601f8101861361219e57600080fd5b80516121ac6118088261210f565b8082825260208201915060208360051b8501019250888311156121ce57600080fd5b602084015b8381101561221057805167ffffffffffffffff8111156121f257600080fd5b6122018b602083890101612007565b845250602092830192016121d3565b508452505050602091820151918101919091529392505050565b600060a0828403121561223c57600080fd5b60405160a0810167ffffffffffffffff8111828210171561225f5761225f61170a565b80604052508091508251612272816116d1565b8152602083015161228281611d4b565b6020820152604083015161229581611cc5565b604082015260608301516122a881611cc5565b6060820152608092830151920191909152919050565b6000602082840312156122d057600080fd5b815167ffffffffffffffff8111156122e757600080fd5b8201604081850312156122f957600080fd5b61230161174a565b815167ffffffffffffffff81111561231857600080fd5b8201601f8101861361232957600080fd5b80516123376118088261210f565b80828252602082019150602060a0840285010192508883111561235957600080fd5b6020840193505b8284101561238557612372898561222a565b825260208201915060a084019350612360565b8452505050602091820151918101919091529392505050565b6000602082840312156123b057600080fd5b815167ffffffffffffffff8111156123c757600080fd5b8201608081850312156123d957600080fd5b6123e161176d565b81518152602082015167ffffffffffffffff8111156123ff57600080fd5b61240b86828501611e58565b60208301525061241d60408301611fed565b60408201526060820151915061243282611884565b60608101919091529392505050565b60006020828403121561245357600080fd5b815167ffffffffffffffff81111561246a57600080fd5b8201601f8101841361247b57600080fd5b80516124896118088261210f565b8082825260208201915060208360071b8501019250868311156124ab57600080fd5b6020840193505b8284101561252257608084880312156124ca57600080fd5b6124d261176d565b84516124dd816116d1565b815260208501516124ed81611d4b565b6020820152604085015161250081611884565b60408201526060858101519082015282526080909301926020909101906124b2565b9695505050505050565b60006020828403121561253e57600080fd5b8151611703816116d1565b60408152600061255c604083018561198c565b9050612567836119e2565b8260208301529392505050565b600060a0828403121561258657600080fd5b6109f5838361222a565b6080815260006125a3608083018761198c565b82810360208401526125b5818761198c565b9150508360408301526001600160a01b03831660608301529594505050505056fe596f75206d757374207570677261646520666972737400000000000000000000a26469706673582212203d2ed826b3e7c5fe0db8479097acefee56ce0666ec456a4a70da65f81899f5db64736f6c634300081c0033",
  "linkReferences": {},
  "deployedLinkReferences": {}
}